{
  "_format": "hh3-artifact-1",
  "contractName": "Groth16VerifierB",
  "sourceName": "contracts/VerifierB.sol",
  "abi": [
    {
      "inputs": [
        {
          "internalType": "uint256[2]",
          "name": "_pA",
          "type": "uint256[2]"
        },
        {
          "internalType": "uint256[2][2]",
          "name": "_pB",
          "type": "uint256[2][2]"
        },
        {
          "internalType": "uint256[2]",
          "name": "_pC",
          "type": "uint256[2]"
        },
        {
          "internalType": "uint256[3]",
          "name": "_pubSignals",
          "type": "uint256[3]"
        }
      ],
      "name": "verifyProof",
      "outputs": [
        {
          "internalType": "bool",
          "name": "",
          "type": "bool"
        }
      ],
      "stateMutability": "view",
      "type": "function"
    }
  ],
  "bytecode": "0x6080604052348015600e575f5ffd5b506106018061001c5f395ff3fe608060405234801561000f575f5ffd5b5060043610610029575f3560e01c806311479fea1461002d575b5f5ffd5b61004061003b366004610569565b610054565b604051901515815260200160405180910390f35b5f61050b565b7f30644e72e131a029b85045b68181585d2833e84879b9709143e1f593f00000018110610089575f5f5260205ff35b50565b5f60405183815284602082015285604082015260408160608360076107d05a03fa9150816100bc575f5f5260205ff35b825160408201526020830151606082015260408360808360066107d05a03fa915050806100eb575f5f5260205ff35b5050505050565b7f2f70a8e714ef44fde59e1ad7545c2bd6f3f672c40a63baea8c39197ba3778bbb85527f2e17d7f48b2dea2a22420ed06775b44b412a07c580057a9a013647f605b64ce860208601525f608086018661018e87357f1a238a82f97957a204bc2392e8e988d095921d173d6388af31de22139260873b7f04ec6e84f5b0ab632a6a5f4993d48aba1c1821204cea76f0f735c82f3ec78ea08461008c565b6101de60208801357f27c90cf8babb3990952cb1a068dd34620122d4c2b3ad38fb691c8b2daa2a4dac7f2107ebd0e8e906315b9dad1bb27d14da7d5b17e46ff792076d70b47a3c2420018461008c565b61022e60408801357f2c70c5b3d54f905b8f84ce77aa4fc06f2b41e21d053f37e5c2f447a4d222a8517f0c1e7e261c6a5bfa7b1ba7c30ef6c0ea1b5125f6c7f396fcf2d465c78d2bd8108461008c565b50823581527f30644e72e131a029b85045b68181585d97816a916871ca8d3c208c16d87cfd4760208401357f30644e72e131a029b85045b68181585d97816a916871ca8d3c208c16d87cfd4703066020820152833560408201526020840135606082015260408401356080820152606084013560a08201527f1356ebffd7751e396551f46782dbf6895252053dc3e84d15bdb8fefd2dbe7cd460c08201527f285a81a15667487b0499ae21feb0c3ac692ba671996ad699c74a862109a6051560e08201527f120a4a5c0abfce02a11e19cad8739e575b90fc5e701cb9ee8c0f9752c2bfc42a6101008201527e7f0ee01dee1bb44eecea9077e6019867a4c0cd79b932de9b5bed472a4608fc6101208201527f21eee12364578a463e20fbcb191534fe67db13f861f7b563b7e2feb97a45ef466101408201527f01f78397518b967b71a5cb207213f1f580b85155f131515a982fdf245cd20dda6101608201525f87015161018082015260205f018701516101a08201527f198e9393920d483a7260bfb731fb5d25f1aa493335a9e71297e485b7aef312c26101c08201527f1800deef121f1e76426a00665e5c4479674322d4f75edadd46debd5cd992f6ed6101e08201527f090689d0585ff075ec9e99ad690c3395bc4b313370b38ef355acdadcd122975b6102008201527f12c85ea5db8c6deb4aab71808dcb408fe3d1e7690c43d37b4ce6cc0166fa7daa610220820152843561024082015260208501356102608201527f198e9393920d483a7260bfb731fb5d25f1aa493335a9e71297e485b7aef312c26102808201527f1800deef121f1e76426a00665e5c4479674322d4f75edadd46debd5cd992f6ed6102a08201527f090689d0585ff075ec9e99ad690c3395bc4b313370b38ef355acdadcd122975b6102c08201527f12c85ea5db8c6deb4aab71808dcb408fe3d1e7690c43d37b4ce6cc0166fa7daa6102e08201526020816103008360086107d05a03fa9051169695505050505050565b60405161038081016040526105225f84013561005a565b61052f602084013561005a565b61053c604084013561005a565b610549818486888a6100f2565b9050805f5260205ff35b8060408101831015610563575f5ffd5b92915050565b5f5f5f5f610160858703121561057d575f5ffd5b6105878686610553565b935060c0850186811115610599575f5ffd5b6040860193506105a98782610553565b92505085610160860111156105bc575f5ffd5b5091949093509091610100019056fea26469706673582212205272d2666517997ab69f8e2d0b14a235d53adf0ec5bfdeb919923362cae595d164736f6c634300081c0033",
  "linkReferences": {},
  "deployedLinkReferences": {},
  "immutableReferences": {},
  "inputSourceName": "project/contracts/VerifierB.sol",
  "buildInfoId": "solc-0_8_28-98331c7db60b7c223c19f8e0713fd84e06d22da8"
}