{
  "_format": "hh3-artifact-1",
  "contractName": "Minter_Verifier",
  "sourceName": "contracts/minter_verifier.sol",
  "abi": [
    {
      "inputs": [
        {
          "internalType": "address",
          "name": "_contract",
          "type": "address"
        },
        {
          "internalType": "address",
          "name": "_verifier",
          "type": "address"
        },
        {
          "internalType": "address",
          "name": "_verifierB",
          "type": "address"
        }
      ],
      "stateMutability": "nonpayable",
      "type": "constructor"
    },
    {
      "inputs": [],
      "name": "A_verifier",
      "outputs": [
        {
          "internalType": "contract Groth16Verifier",
          "name": "",
          "type": "address"
        }
      ],
      "stateMutability": "view",
      "type": "function"
    },
    {
      "inputs": [],
      "name": "B_verifier",
      "outputs": [
        {
          "internalType": "contract Groth16VerifierB",
          "name": "",
          "type": "address"
        }
      ],
      "stateMutability": "view",
      "type": "function"
    },
    {
      "inputs": [
        {
          "components": [
            {
              "internalType": "uint256[2]",
              "name": "A",
              "type": "uint256[2]"
            },
            {
              "internalType": "uint256[2][2]",
              "name": "B",
              "type": "uint256[2][2]"
            },
            {
              "internalType": "uint256[2]",
              "name": "C",
              "type": "uint256[2]"
            },
            {
              "internalType": "uint256[]",
              "name": "_publicSignals",
              "type": "uint256[]"
            }
          ],
          "internalType": "struct Proof",
          "name": "proof_A",
          "type": "tuple"
        },
        {
          "components": [
            {
              "internalType": "uint256[2]",
              "name": "A",
              "type": "uint256[2]"
            },
            {
              "internalType": "uint256[2][2]",
              "name": "B",
              "type": "uint256[2][2]"
            },
            {
              "internalType": "uint256[2]",
              "name": "C",
              "type": "uint256[2]"
            },
            {
              "internalType": "uint256[]",
              "name": "_publicSignals",
              "type": "uint256[]"
            }
          ],
          "internalType": "struct ProofB",
          "name": "proof_B",
          "type": "tuple"
        }
      ],
      "name": "Minter_VerifierVerifier",
      "outputs": [],
      "stateMutability": "payable",
      "type": "function"
    },
    {
      "inputs": [],
      "name": "real_contract",
      "outputs": [
        {
          "internalType": "contract Main_Contract",
          "name": "",
          "type": "address"
        }
      ],
      "stateMutability": "view",
      "type": "function"
    }
  ],
  "bytecode": "0x6080604052348015600e575f5ffd5b506040516108c93803806108c9833981016040819052602b916085565b5f80546001600160a01b039485166001600160a01b03199182161790915560018054938516938216939093179092556002805491909316911617905560be565b80516001600160a01b03811681146080575f5ffd5b919050565b5f5f5f606084860312156096575f5ffd5b609d84606b565b925060a960208501606b565b915060b560408501606b565b90509250925092565b6107fe806100cb5f395ff3fe60806040526004361061003e575f3560e01c806332c0eafb1461004257806351a433c91461007c578063c992c16214610091578063fd74994c146100b0575b5f5ffd5b34801561004d575f5ffd5b505f54610060906001600160a01b031681565b6040516001600160a01b03909116815260200160405180910390f35b61008f61008a3660046105bf565b6100cf565b005b34801561009c575f5ffd5b50600254610060906001600160a01b031681565b3480156100bb575f5ffd5b50600154610060906001600160a01b031681565b6001546040805160a0810182525f926001600160a01b0316916334baeab991869182019060c083019080610107610100860186610624565b5f81811061011757610117610671565b905060200201358152602001898061010001906101349190610624565b600181811061014557610145610671565b905060200201358152602001898061010001906101629190610624565b600281811061017357610173610671565b905060200201358152602001898061010001906101909190610624565b60038181106101a1576101a1610671565b905060200201358152602001898061010001906101be9190610624565b60048181106101cf576101cf610671565b905060200201358152506040518563ffffffff1660e01b81526004016101f894939291906106af565b602060405180830381865afa158015610213573d5f5f3e3d5ffd5b505050506040513d601f19601f820116820180604052508101906102379190610701565b90508061027d5760405162461bcd60e51b815260206004820152600f60248201526e496e76616c69642070726f6f66204160881b60448201526064015b60405180910390fd5b600254604080516060810182525f926001600160a01b0316916311479fea91869182019060c0830190806102b5610100860186610624565b5f8181106102c5576102c5610671565b905060200201358152602001898061010001906102e29190610624565b60018181106102f3576102f3610671565b905060200201358152602001898061010001906103109190610624565b600281811061032157610321610671565b905060200201358152506040518563ffffffff1660e01b815260040161034a9493929190610727565b602060405180830381865afa158015610365573d5f5f3e3d5ffd5b505050506040513d601f19601f820116820180604052508101906103899190610701565b9050806103ca5760405162461bcd60e51b815260206004820152600f60248201526e24b73b30b634b210383937b7b3102160891b6044820152606401610274565b6103d8610100840184610624565b60028181106103e9576103e9610671565b90506020020135848061010001906104019190610624565b600381811061041257610412610671565b90506020020135146104665760405162461bcd60e51b815260206004820152601a60248201527f416d6f756e745f7220686173686573206d757374206d617463680000000000006044820152606401610274565b5f8054604051636811617760e01b81523360048201526001600160a01b03909116906368116177906024016040805180830381865afa1580156104ab573d5f5f3e3d5ffd5b505050506040513d601f19601f820116820180604052508101906104cf919061076d565b5f5481519192506001600160a01b031690639afb54709033906104f6610100890189610624565b600181811061050757610507610671565b905060200201358980610100019061051f9190610624565b600481811061053057610530610671565b6040516001600160e01b031960e089901b1681526001600160a01b03909616600487015260248601949094525060448401919091526020909102013560648201526084015f604051808303815f87803b15801561058b575f5ffd5b505af115801561059d573d5f5f3e3d5ffd5b505050505050505050565b5f61012082840312156105b9575f5ffd5b50919050565b5f5f604083850312156105d0575f5ffd5b823567ffffffffffffffff8111156105e6575f5ffd5b6105f2858286016105a8565b925050602083013567ffffffffffffffff81111561060e575f5ffd5b61061a858286016105a8565b9150509250929050565b5f5f8335601e19843603018112610639575f5ffd5b83018035915067ffffffffffffffff821115610653575f5ffd5b6020019150600581901b360382131561066a575f5ffd5b9250929050565b634e487b7160e01b5f52603260045260245ffd5b805f5b60028110156106a95760408285376040938401939190910190600101610688565b50505050565b6101a0810160408683376106c66040830186610685565b60408460c08401376101008201835f5b60058110156106f55781518352602092830192909101906001016106d6565b50505095945050505050565b5f60208284031215610711575f5ffd5b81518015158114610720575f5ffd5b9392505050565b6101608101604086833761073e6040830186610685565b60408460c08401376101008201835f5b60038110156106f557815183526020928301929091019060010161074e565b5f604082840312801561077e575f5ffd5b506040805190810167ffffffffffffffff811182821017156107ae57634e487b7160e01b5f52604160045260245ffd5b60405282518152602092830151928101929092525091905056fea26469706673582212202b442db6f6e6424471aa9bf486b9928faffe50f42a20921d4f15f7586061331364736f6c634300081c0033",
  "linkReferences": {},
  "deployedLinkReferences": {},
  "immutableReferences": {},
  "inputSourceName": "project/contracts/minter_verifier.sol",
  "buildInfoId": "solc-0_8_28-400112d32d8b19af380651f44e0ac565058cd070"
}