{
  "_format": "hh3-artifact-1",
  "contractName": "Burner_Verifier",
  "sourceName": "contracts/burner_verfier.sol",
  "abi": [
    {
      "inputs": [
        {
          "internalType": "address",
          "name": "_contract",
          "type": "address"
        },
        {
          "internalType": "address",
          "name": "_verifier",
          "type": "address"
        }
      ],
      "stateMutability": "nonpayable",
      "type": "constructor"
    },
    {
      "inputs": [
        {
          "components": [
            {
              "internalType": "uint256[2]",
              "name": "A",
              "type": "uint256[2]"
            },
            {
              "internalType": "uint256[2][2]",
              "name": "B",
              "type": "uint256[2][2]"
            },
            {
              "internalType": "uint256[2]",
              "name": "C",
              "type": "uint256[2]"
            },
            {
              "internalType": "uint256[]",
              "name": "_publicSignals",
              "type": "uint256[]"
            }
          ],
          "internalType": "struct Proof",
          "name": "proof",
          "type": "tuple"
        }
      ],
      "name": "BurnerVerifier",
      "outputs": [],
      "stateMutability": "payable",
      "type": "function"
    },
    {
      "inputs": [],
      "name": "real_contract",
      "outputs": [
        {
          "internalType": "contract Main_Contract",
          "name": "",
          "type": "address"
        }
      ],
      "stateMutability": "view",
      "type": "function"
    },
    {
      "inputs": [],
      "name": "verifier",
      "outputs": [
        {
          "internalType": "contract Groth16Verifier",
          "name": "",
          "type": "address"
        }
      ],
      "stateMutability": "view",
      "type": "function"
    }
  ],
  "bytecode": "0x6080604052348015600e575f5ffd5b5060405161070d38038061070d833981016040819052602b916074565b5f80546001600160a01b039384166001600160a01b0319918216179091556001805492909316911617905560a0565b80516001600160a01b0381168114606f575f5ffd5b919050565b5f5f604083850312156084575f5ffd5b608b83605a565b9150609760208401605a565b90509250929050565b610660806100ad5f395ff3fe608060405260043610610033575f3560e01c80632b7ac3f31461003757806332c0eafb14610072578063c439682414610090575b5f5ffd5b348015610042575f5ffd5b50600154610056906001600160a01b031681565b6040516001600160a01b03909116815260200160405180910390f35b34801561007d575f5ffd5b505f54610056906001600160a01b031681565b6100a361009e3660046104a0565b6100a5565b005b6001546040805160a0810182525f926001600160a01b0316916334baeab991859182019060c0830190806100dd6101008601866104df565b5f8181106100ed576100ed61052c565b9050602002013581526020018880610100019061010a91906104df565b600181811061011b5761011b61052c565b9050602002013581526020018880610100019061013891906104df565b60028181106101495761014961052c565b9050602002013581526020018880610100019061016691906104df565b60038181106101775761017761052c565b9050602002013581526020018880610100019061019491906104df565b60048181106101a5576101a561052c565b905060200201358152506040518563ffffffff1660e01b81526004016101ce9493929190610540565b602060405180830381865afa1580156101e9573d5f5f3e3d5ffd5b505050506040513d601f19601f8201168201806040525081019061020d91906105b0565b9050806102515760405162461bcd60e51b815260206004820152600d60248201526c24b73b30b634b210383937b7b360991b60448201526064015b60405180910390fd5b5f8054604051636811617760e01b81523360048201526001600160a01b03909116906368116177906024016040805180830381865afa158015610296573d5f5f3e3d5ffd5b505050506040513d601f19601f820116820180604052508101906102ba91906105cf565b80519091506102cd6101008501856104df565b5f8181106102dd576102dd61052c565b90506020020135146103315760405162461bcd60e51b815260206004820152601e60248201527f496e76616c69642063757272656e74207075626c69632062616c616e636500006044820152606401610248565b60208101516103446101008501856104df565b60018181106103555761035561052c565b90506020020135146103a95760405162461bcd60e51b815260206004820181905260248201527f496e76616c69642063757272656e7420707269766174652062616c616e6365736044820152606401610248565b5f546001600160a01b031663f345a0df336103c86101008701876104df565b5f8181106103d8576103d861052c565b90506020020135868061010001906103f091906104df565b60028181106104015761040161052c565b905060200201358780610100019061041991906104df565b600481811061042a5761042a61052c565b6040516001600160e01b031960e089901b1681526001600160a01b03909616600487015260248601949094525060448401919091526020909102013560648201526084015f604051808303815f87803b158015610485575f5ffd5b505af1158015610497573d5f5f3e3d5ffd5b50505050505050565b5f602082840312156104b0575f5ffd5b813567ffffffffffffffff8111156104c6575f5ffd5b820161012081850312156104d8575f5ffd5b9392505050565b5f5f8335601e198436030181126104f4575f5ffd5b83018035915067ffffffffffffffff82111561050e575f5ffd5b6020019150600581901b3603821315610525575f5ffd5b9250929050565b634e487b7160e01b5f52603260045260245ffd5b6101a08101604086833760408201855f5b60028110156105725760408284376040928301929190910190600101610551565b50505060408460c08401376101008201835f5b60058110156105a4578151835260209283019290910190600101610585565b50505095945050505050565b5f602082840312156105c0575f5ffd5b815180151581146104d8575f5ffd5b5f60408284031280156105e0575f5ffd5b506040805190810167ffffffffffffffff8111828210171561061057634e487b7160e01b5f52604160045260245ffd5b60405282518152602092830151928101929092525091905056fea2646970667358221220086610d05da4812d07a11a50dc845d1ebe81b0c76d67ff900f81d022eacc61f064736f6c634300081c0033",
  "linkReferences": {},
  "deployedLinkReferences": {},
  "immutableReferences": {},
  "inputSourceName": "project/contracts/burner_verfier.sol",
  "buildInfoId": "solc-0_8_28-4392628e84f02b01a3a62083604d2b470be00f4f"
}