{
  "_format": "hh3-artifact-1",
  "contractName": "Main_Contract",
  "sourceName": "contracts/main.sol",
  "abi": [
    {
      "inputs": [],
      "stateMutability": "nonpayable",
      "type": "constructor"
    },
    {
      "inputs": [],
      "name": "burn_controller",
      "outputs": [
        {
          "internalType": "address",
          "name": "",
          "type": "address"
        }
      ],
      "stateMutability": "view",
      "type": "function"
    },
    {
      "inputs": [
        {
          "internalType": "address",
          "name": "user",
          "type": "address"
        },
        {
          "internalType": "uint256",
          "name": "curr_pub_balance",
          "type": "uint256"
        },
        {
          "internalType": "uint256",
          "name": "new_priv_balance",
          "type": "uint256"
        },
        {
          "internalType": "uint256",
          "name": "nullifier",
          "type": "uint256"
        }
      ],
      "name": "burner",
      "outputs": [],
      "stateMutability": "payable",
      "type": "function"
    },
    {
      "inputs": [
        {
          "internalType": "address",
          "name": "user",
          "type": "address"
        }
      ],
      "name": "getbalance",
      "outputs": [
        {
          "components": [
            {
              "internalType": "uint256",
              "name": "pub_balance",
              "type": "uint256"
            },
            {
              "internalType": "uint256",
              "name": "priv_balance",
              "type": "uint256"
            }
          ],
          "internalType": "struct balance_data",
          "name": "",
          "type": "tuple"
        }
      ],
      "stateMutability": "view",
      "type": "function"
    },
    {
      "inputs": [],
      "name": "mint_controller",
      "outputs": [
        {
          "internalType": "address",
          "name": "",
          "type": "address"
        }
      ],
      "stateMutability": "view",
      "type": "function"
    },
    {
      "inputs": [
        {
          "internalType": "address",
          "name": "user",
          "type": "address"
        },
        {
          "internalType": "uint256",
          "name": "curr_pub_balance",
          "type": "uint256"
        },
        {
          "internalType": "uint256",
          "name": "new_priv_balance",
          "type": "uint256"
        },
        {
          "internalType": "uint256",
          "name": "nullifier",
          "type": "uint256"
        }
      ],
      "name": "minter",
      "outputs": [],
      "stateMutability": "payable",
      "type": "function"
    },
    {
      "inputs": [],
      "name": "owner",
      "outputs": [
        {
          "internalType": "address",
          "name": "",
          "type": "address"
        }
      ],
      "stateMutability": "view",
      "type": "function"
    },
    {
      "inputs": [
        {
          "internalType": "address",
          "name": "_controller",
          "type": "address"
        }
      ],
      "name": "setBurnController",
      "outputs": [],
      "stateMutability": "nonpayable",
      "type": "function"
    },
    {
      "inputs": [
        {
          "internalType": "address",
          "name": "_controller",
          "type": "address"
        }
      ],
      "name": "setMintController",
      "outputs": [],
      "stateMutability": "nonpayable",
      "type": "function"
    }
  ],
  "bytecode": "0x6080604052348015600e575f5ffd5b50600380546001600160a01b031916331790556104be8061002e5f395ff3fe608060405260043610610079575f3560e01c80639afb54701161004c5780639afb5470146101715780639e6360cd14610184578063aad3a7ee146101a3578063f345a0df146101c2575f5ffd5b80630eb265e91461007d578063450907101461009e57806368116177146100da5780638da5cb5b14610152575b5f5ffd5b348015610088575f5ffd5b5061009c610097366004610432565b6101d5565b005b3480156100a9575f5ffd5b506001546100bd906001600160a01b031681565b6040516001600160a01b0390911681526020015b60405180910390f35b3480156100e5575f5ffd5b506101376100f4366004610432565b604080518082019091525f8082526020820152506001600160a01b03165f9081526020818152604091829020825180840190935280548352600101549082015290565b604080518251815260209283015192810192909252016100d1565b34801561015d575f5ffd5b506003546100bd906001600160a01b031681565b61009c61017f366004610452565b610242565b34801561018f575f5ffd5b506002546100bd906001600160a01b031681565b3480156101ae575f5ffd5b5061009c6101bd366004610432565b610304565b61009c6101d0366004610452565b61036c565b6003546001600160a01b031633146102205760405162461bcd60e51b81526020600482015260096024820152682737ba1037bbb732b960b91b60448201526064015b60405180910390fd5b600180546001600160a01b0319166001600160a01b0392909216919091179055565b6002546001600160a01b0316331461028d5760405162461bcd60e51b815260206004820152600e60248201526d139bdd08185d5d1a1bdc9a5e995960921b6044820152606401610217565b5f8181526004602052604090205460ff166102df5760405162461bcd60e51b8152602060048201526012602482015271141c9bdbd988185b1c9958591e481d5cd95960721b6044820152606401610217565b6102ea8484846103df565b5f908152600460205260409020805460ff19169055505050565b6003546001600160a01b0316331461034a5760405162461bcd60e51b81526020600482015260096024820152682737ba1037bbb732b960b91b6044820152606401610217565b600280546001600160a01b0319166001600160a01b0392909216919091179055565b6001546001600160a01b031633146103b75760405162461bcd60e51b815260206004820152600e60248201526d139bdd08185d5d1a1bdc9a5e995960921b6044820152606401610217565b6103c28484846103df565b5f908152600460205260409020805460ff19166001179055505050565b60408051808201825292835260208084019283526001600160a01b039094165f90815293849052909220905181559051600190910155565b80356001600160a01b038116811461042d575f5ffd5b919050565b5f60208284031215610442575f5ffd5b61044b82610417565b9392505050565b5f5f5f5f60808587031215610465575f5ffd5b61046e85610417565b96602086013596506040860135956060013594509250505056fea264697066735822122086a8d132b259e206bae0ebfeb288b7c3dc91fda28e6dcdb00eb517c4489a890064736f6c634300081c0033",
  "linkReferences": {},
  "deployedLinkReferences": {},
  "immutableReferences": {},
  "inputSourceName": "project/contracts/main.sol",
  "buildInfoId": "solc-0_8_28-98ac0379360c26ac5fd024b9307572c814db71bc"
}